:0600000000F079EF00F0B2
:0E000800FFFFFACF0FF0FBCF10F0B5EF0EF0B8
:10001800FFFFD8CF1DF0E8CF1EF0E0CF1FF0FACFDA
:1000280020F0FBCF21F0E9CF22F0EACF23F0E1CF97
:1000380024F0E2CF25F0D9CF26F0DACF27F0F3CF9E
:1000480028F0F4CF29F0F6CF2AF0F7CF2BF0F8CF2D
:100058002CF0F5CF2DF09DBA9EAA23D00101010105
:100068006551010D0101000EF324D96E0101010E45
:10007800F420DA6EAECFDFFF010101016551010DF9
:100088000101000EF324D96E0101010EF420DA6E8D
:10009800DF50AD6E01010101652B4FC066F150C004
:1000A80067F12DC0F5FF2CC0F8FF2BC0F7FF2AC061
:1000B800F6FF29C0F4FF28C0F3FF27C0DAFF26C0E7
:1000C800D9FF25C0E2FF24C0E1FF23C0EAFF22C018
:1000D800E9FF21C0FBFF20C0FAFF1FC0E0FF1EC0E0
:1000E800E8FF1DC0D8FF1000FFFF00EE00F00F0E64
:1000F800EE6AEE6AEE6AEE6AEE6AEE6AEE6AEE6A38
:0E010800E9BEEA62F5D789EF00F019EF19F0B1
:10060000002D202020002020202000455F742000A5
:10061000303030390000FFFF0001DE6F000E0001B6
:100620000001E06F0001DE51A4D2000193A3D5D2F6
:100630000001DE6F020E70D2000E9EEC18F0000179
:10064000DE6F000E2F6E0001DE51E1EC13F00001B1
:10065000D6C0E1F00001D7C0E2F00001000E0001B9
:100660000001AF6F0001E50E00010001AE6F000157
:100670000001AFC0CCF000010001AEC0CBF0E1C082
:10068000CDF0E2C0CEF0000E00010001D06F0A0EE6
:100690000001CF6F34EC16F00001DE6F000E000198
:1006A0000001B06F0001DE510001DE6F010E00019C
:1006B0000001B16F0001DE510001DE6F000E00018C
:1006C0000001B26F0001DE510001DE6F000E00017B
:1006D0000001B36F0001DE510001DE6F030E1CD27A
:1006E000000193B37AD257B004D00001DE6F040E3C
:1006F00003D00001DE6F0A0E2E6E0001DE51E3EC26
:1007000017F0000E9EEC18F01AD12F50030D0101C6
:10071000000EF324D96E0101010EF420DA6EDF50D1
:10072000D8A404D00001DE6F080EF6D120EE30F020
:10073000DECFDEF0DDCFDFF00001DE1FDF1FDE4B9E
:10074000DF2B4F500001DE2750500001DF23150E34
:100750000001DE5D000EDF59D8A03FD22F50030DFF
:100760000101000EF324D96E0101010EF420DA6EAE
:10077000DF5040EC19F00001DE6F050E2E6E000117
:10078000DE51DDD020EE30F0DECFDEF0DDCFDFF069
:100790000001DE1FDF1FDE4BDF2B4F500001DE2785
:1007A00050500001DF23150E0001DE5D000EDF5901
:1007B000D8A013D2E1EC12F00001D6C0E1F00001A4
:1007C000D7C0E2F0560E00010001E15D000E00010D
:1007D000E259D8A004D00001DE6F070E03D000015B
:1007E000DE6F060E2E6E0001DE512F50030D01014B
:1007F000000EF324D96E0101010EF420DA6EDF50F1
:100800005EEC14F0000E40EC19F099D020EE30F0C0
:10081000DECFDEF0DDCFDFF00001DE1FDF1FDE4BBD
:10082000DF2B4F500001DE2750500001DF23150E53
:100830000001DE5D000EDF59D8A0CFD120EE2FF0F1
:10084000DF2A1F0EDF6404D00001DE6F080E03D024
:100850000001DE6F040E2E6E0001DE51000E9EECD4
:1008600018F06DD0000193B3B8D120EE30F0DECF98
:10087000DEF0DDCFDFF00001DE1FDF1FDE4BDF2B00
:100880004F500001DE2750500001DF23F50E00011C
:10089000DE5D010EDF59D8A0A0D120EE2FF0DF2AB7
:1008A0001F0EDF6404D00001DE6F080E03D00001CC
:1008B000DE6F040E2E6E0001DE51000E9EEC18F06D
:1008C0003ED02F50D8B406D00101010160515EEC3A
:1008D00014F010D00001DE6F000E00010001AC6FBB
:1008E0000001DE510001DE6F000E00010001AD6F5E
:1008F0000001DE510001DE6F2D0E00010001AA6F24
:100900000001DE510001DE6F2D0E00010001AB6F12
:100910000001DE510001000E00010001AF6F000177
:10092000AA0E00010001AE6F0001DE6F090EF4D0C7
:10093000000193B352D10001DE6F100E1FD74FC0DC
:1009400030F050C031F049D120EE30F0DECFDEF093
:10095000DDCFDFF00001DE1FDF1FDE4BDF2B4F504E
:100960000001DE2750500001DF23150E0001DE5D7F
:10097000000EDF59D8A031D12F2840EC19F000012A
:10098000DE6F0B0EFBD620EE30F0DECFDEF0DDCFDB
:10099000DFF00001DE1FDF1FDE4BDF2B4F500001B9
:1009A000DE2750500001DF23150E0001DE5D000E32
:1009B000DF59D8A012D1E1EC12F00001D6C0E1F06D
:1009C0000001D7C0E2F0560E00010001E15D000E0B
:1009D0000001E259D8A004D00001DE6F0D0E03D053
:1009E0000001DE6F0C0E2E6E0001DE512F285EEC32
:1009F00014F0000E40EC19F0A2D720EE30F0DECF5C
:100A0000DEF0DDCFDFF00001DE1FDF1FDE4BDF2B6E
:100A10004F500001DE2750500001DF23150E00016A
:100A2000DE5D000EDF59D8A0D8D020EE2FF0DF2AEF
:100A30001F0EDF6404D00001DE6F0E0E03D0000134
:100A4000DE6F0A0E2E6E0001DE51000E9EEC18F0D5
:100A500076D7000193B3C1D020EE30F0DECFDEF0C8
:100A6000DDCFDFF00001DE1FDF1FDE4BDF2B4F503D
:100A70000001DE2750500001DF23F50E0001DE5D8E
:100A8000010EDF59D8A0A9D020EE2FF0DF2A1F0ECB
:100A9000DF6404D00001DE6F0E0E03D00001DE6FB4
:100AA0000A0E2E6E0001DE51000E9EEC18F047D7A4
:100AB0002F50D8B404D02F505EEC14F010D00001A9
:100AC000DE6F000E00010001AC6F0001DE5100017D
:100AD000DE6F000E00010001AD6F0001DE5100016C
:100AE000DE6F2D0E00010001AA6F0001DE51000132
:100AF000DE6F2D0E00010001AB6F0001DE51000121
:100B0000000E00010001AF6F0001AA0E00010001FC
:100B1000AE6F0001DE6F0F0E2E6E28D020EE30F08B
:100B2000DECFDEF0DDCFDFF00001DE1FDF1FDE4BAA
:100B3000DF2B4F500001DE2750500001DF23E90E6C
:100B40000001DE5D030EDF59D8A047D00001DE6F43
:100B5000110E2E6E0001DE519CEC1AF03ED0000109
:100B600093A33BD00001DE6F000E546E0001DE51F6
:100B700034D02E50010AD8B458D5030AD8B45CD565
:100B8000010AD8B4ADD5070AD8B4BFD5010AD8B484
:100B9000F9D5030AD8B43AD6010AD8B463D60F0AF5
:100BA000D8B48FD6010AD8B4C3D6030AD8B4CCD6E9
:100BB000010AD8B4E8D6070AD8B41FD7010AD8B4B6
:100BC00048D7030AD8B474D7010AD8B4B1D61F0ADB
:100BD000D8B4A4D7010AD8B4C2D71200FFFFFFFFD0
:100BE0000001BA6F000E00010001C66F0001BA518A
:100BF0000001BA6F000E00010001C76F0001BA5179
:100C0000000E00010001C86F000E0001C96F000E48
:100C10000001CA6F000E0001CB6F46D00001000139
:100C2000C751030D010EF326000EF4220101000E40
:100C3000F324D96E0101010EF420DA6EDF500001B9
:100C4000BA6F0001BA510001BC6FBB6B000100011B
:100C5000C751030D020EF326000EF4220101000E0F
:100C6000F324D96E0101010EF420DA6EDF50000189
:100C7000BD6F0001BD510001BB27000EBC23000168
:100C8000BB5100010001C8270001BC510001000157
:100C9000C923000E00010001CA23000E000100015B
:100CA000CB2300010001C72B1F0E00010001C76507
:100CB000B5D7010161C1BAF00001BB6BBC6BBD6B64
:100CC0000001C8C0BEF00001C9C0BFF00001CAC029
:100CD000C0F00001CBC0C1F0190E06D00001D890C1
:100CE000C133C033BF33BE33E82EF8D7FF0E000147
:100CF000BE150001C26F000E0001BF150001C36FD9
:100D0000000E0001C0150001C46F000E0001C115E6
:100D10000001C56F0001BD510001C5190EE10001C0
:100D2000BC510001C41909E10001BB510001C31904
:100D300004E10001BA510001C219D8A4C6D00101D2
:100D400062C1BAF00001BB6BBC6BBD6B0001C8C0D7
:100D5000BEF00001C9C0BFF00001CAC0C0F0000170
:100D6000CBC0C1F0110E06D00001D890C133C03302
:100D7000BF33BE33E82EF8D7FF0E0001BE150001C9
:100D8000C26F000E0001BF150001C36F000E00010D
:100D9000C0150001C46F000E0001C1150001C56F30
:100DA0000001BD510001C5190EE10001BC51000157
:100DB000C41909E10001BB510001C31904E100019C
:100DC000BA510001C219D8A480D0010163C1BAF0A0
:100DD0000001BB6BBC6BBD6BFF0E0001C8C0BEF059
:100DE0000001C9C0BFF00001CAC0C0F00001CBC003
:100DF000C1F0BFC0BEF0C0C0BFF0C1C0C0F00001B4
:100E0000C16B0001BE150001C26F000E0001BF15CD
:100E10000001C36F000E0001C0150001C46F000E79
:100E20000001C1150001C56F0001BD510001C519C8
:100E30000EE10001BC510001C41909E10001BB51E0
:100E40000001C31904E10001BA510001C219D8A47C
:100E50003CD0010164C1BAF00001BB6BBC6BBD6B3F
:100E6000FF0E00010001C8150001BE6F000E000159
:100E70000001C9150001BF6F000E00010001CA1575
:100E80000001C06F000E00010001CB150001C16F11
:100E90000001BD510001C1190EE10001BC5100016A
:100EA000C01909E10001BB510001BF1904E10001B3
:100EB000BA510001BE19D8A408D00001BA6F010EC2
:100EC00000010001C66F0001BA5101010101616713
:100ED0000DD001010101626709D0010101016367C1
:100EE00005D001010101646701D05782000E0001A5
:100EF0000001C85D000E0001C959010E0001CA5968
:100F0000000E00010001CB59D8A003D0010101015E
:100F10006A81C6C0BAF00001BA311200FFFFFFFFBC
:100F200013D1000199B32ED1576604D00001C16FCF
:100F3000010E03D00001C16F030E00010001806F9C
:100F40000001C1510001C16F020E566E0001C15176
:100F5000320E516E000E4E6E000E4D6E0001C16FCE
:100F6000000E000100018B6F0001C1510001000162
:100F70008D914FC089F050C08AF004D1000100016A
:100F80008151030D0101000EF324D96E0101010E00
:100F9000F420DA6EDF50000100018C6FADEC1AF026
:100FA0000001C16F0001C105D8A404D00001C16FC8
:100FB000080EBFD0000100018151030D010EF32680
:100FC000000EF4220101000EF324D96E0101010E7E
:100FD000F420DA6EDF5000010001866F0001856B9E
:100FE000000100018151030D020EF326000EF422D0
:100FF0000101000EF324D96E0101010EF420DA6E16
:10100000DF500001C16F0001C151000100018513D3
:101010000001C16F020E8DD0000120EE85F0DE527E
:101020004E50DD184DC0E8FFD8B4DF18D8A4AAD0C0
:10103000000100018C511FEC1AF078D057A004D0A9
:101040000001000181290FD057A210D0000100013A
:101050008151030D0101000EF324D96E0101010E2F
:10106000F420DA6EDF50000100018C6FADEC1AF055
:101070000001C16F0001C105D8B498D70001C16F4C
:10108000040E57D0000199B37DD0000E000100017D
:10109000BB6F0F0E0001BA6FB4EC19F00001000134
:1010A0008C511FEC1AF00001C16F050E0001000108
:1010B000806F0001C1514FC087F050C088F062D0EE
:1010C000000120EE87F0DECFC1F0DDCFC2F00001DD
:1010D000C11FC21FC14BC22B4F500001C12750502E
:1010E0000001C223C90E0001C15D000EC259D8A083
:1010F00049D0000199A346D00001C16F030E19D059
:1011000000018DB33FD051C082F04DC083F04EC07E
:1011100084F0000100018D8335D082C051F083C07E
:101120004DF084C04EF0000100018D930001C16FAD
:10113000010E00010001806F04D00001C16F080E94
:10114000566E0001C1511ED0000100018051000AFD
:10115000D8B4E7D6010AD8B411D7030AD8B45CD7FB
:10116000010AD8B46BD7070AD8B48CD7010AD8B40F
:10117000A7D7030AD8B4C4D7010AD8B4CED70F0A68
:10118000D8B4DBD71200FFFFFFFF0001BA6F000EDB
:1011900000010001BF6F0001BA5109D1000E84B0F7
:1011A000010E00010001BE6F24D0000E84B2010EBA
:1011B00000010001BE6F1DD0000E82BA010E0001B9
:1011C0000001BE6F16D0000E81B0010E00010001BB
:1011D000BE6F0FD000010001BF51000AD8B4DED7A6
:1011E000010AD8B4E2D7030AD8B4E6D7010AD8B4C2
:1011F000EAD700010001BF51030D020EF326000ED5
:10120000F42200018E0EF324D96E0001000EF420AA
:10121000DA6EDFA002D0010E01D0000E0001000145
:10122000BE19D8A498D000010001BF51030D020ED1
:10123000F326000EF42200018E0EF324D96E000175
:10124000000EF420DA6EDFA002D0010E01D0000EF5
:101250000001BA6F00010001BF51030D020EF32619
:10126000000EF42200018E0EF324D96E0001000E50
:10127000F420DA6EDFA202D0010E01D0000E0001D0
:10128000BA1BD8B491D000010001BF51030AD8A401
:1012900003D05704D8B406D0000E00010001BD6F82
:1012A000640E05D0000E00010001BD6F050E0001A7
:1012B000BC6F00010001BF51030D00018E0EF3242D
:1012C000D96E0001000EF420DA6EDECFBAF0DDCF69
:1012D000BBF00001BA1FBB1FBA4BBB2B4F50000124
:1012E000BA2750500001BB230001BA510001000190
:1012F000BC5D0001BB5100010001BD59D8B054D004
:1013000000010001BF51030D020EF326000EF4226E
:1013100000018E0EF324D96E0001000EF420DA6E67
:1013200000010001BF51030D020EF326000EF4224E
:1013300000018E0EF324E16E0001000EF420E26E37
:101340000001DFA002D00001E7820001DFB002D07F
:101350000001E79229D000010001BF51030D020EE8
:10136000F326000EF42200018E0EF324D96E000144
:10137000000EF420DA6E00010001BEB103D00001BE
:10138000DF9002D00001DF8000010001BF51030D9A
:1013900000018E0EF324D96E0001000EF420DA6EE7
:1013A0004FC0DEFF50C0DDFF00010001BF2B030E68
:1013B00000010001BF650ED71200FFFFFFFF000113
:1013C000C9C0CDF00001CE6BCF6B00010001C83564
:1013D0000001CD3701E3CE810001CD5100010001B4
:1013E000D06F0001D06701D015D00001CCC0CDF086
:1013F0000001CE6BCF6B00010001CB350001CD3772
:1014000001E3CE810001CD5100010001D56F000143
:10141000D5670DD0000E00010001C76F000E00015E
:101420000001C86F000E00010001C96FA7D00001C4
:101430000001D5517B0F00010001D027C9C0D5F0B4
:1014400000010001CC5100010001D51B800E0001FC
:101450000001D51700010001C88F00010001CB8FEA
:10146000FF0E00010001CA17FF0E00010001CB179B
:10147000000E00010001CC17000E00010001D16F29
:10148000000E00010001D26F000E00010001D36FB9
:101490000001CD6F070E00010001D46F0001CD5196
:1014A00000010001C7A112D000010001CA510001D2
:1014B0000001D12700010001CB5100010001D2231E
:1014C00000010001CC5100010001D3230001D8909C
:1014D0000001C9330001C8330001C7330001D890AF
:1014E0000001CA370001CB370001CC3700010001F1
:1014F000D42FD6D70001CD6F090E00010001D46FA3
:101500000001CD5100010001C7A112D0000100016E
:10151000CA5100010001D12700010001CB51000197
:101520000001D22300010001CC5100010001D323AE
:101530000001D8900001C9330001C8330001C7334E
:101540000001D8900001D3330001D2330001D13320
:1015500000010001D42FD6D7D1C0BAF0D2C0BBF061
:10156000D3C0BCF0D0C0BDF0D5C0BEF010EC10F0C0
:10157000BAC0C7F0BBC0C8F0BCC0C9F01200FFFFC2
:10158000FFFF0001CE6F000E00010001D06F0001CF
:10159000CE51010121EE68F0DECFCEF0DDCFCFF0ED
:1015A0000001CE1FCF1FCE4BCF2B4F500001CE27B7
:1015B00050500001CF23650E0001CE5D000ECF59C3
:1015C000D8A024D04FC068F150C069F1F29E01014B
:1015D00021EE66F0DECFCEF0DDCFCFF00001CE1FE2
:1015E000CF1FCE4BCF2B4F500001CE2750500001C4
:1015F000CF23650E0001CE5D000ECF59D8A004D0D8
:10160000000E01010101656FF28E98D00101010108
:101610006551650AD8A492D09D9AFDEC19F000019D
:101620000001D06F00010001D0670CD00001CE6F27
:10163000450E00010001BB6F0001CE51030ED9EC35
:1016400019F077D00101010E00010001BD6F010109
:10165000000E00010001BC6F0001CE6F000E000102
:101660000001BE6F0001CE510001CF6F650E000179
:101670000001BF6F0001CF51F1EC18F00001CE6FF7
:10168000000E00010001D16F0001CE5111D0000108
:101690000001D151010D0101000EF324D96E0101A9
:1016A000010EF420DA6E000EDF6E00010001D12B76
:1016B000640E00010001D165EAD70101010E0001AD
:1016C0000001BC6F0101000E00010001BB6F0001B1
:1016D000CE6F000E00010001BD6F0001CE51000170
:1016E000CF6F650E00010001BE6F0001CF51C8EC45
:1016F00018F0FDEC19F000010001D06F00010001AD
:10170000D0670CD00001CE6F450E00010001BB6F09
:101710000001CE51030ED9EC19F00BD00001CE6FB1
:10172000500E00010001BB6F0001CE51030ED9EC39
:1017300019F0000E01010101656F9D8A1200FFFF83
:10174000FFFF56A609D0000190B306D0060E000197
:101750000001AF6F100E7ED0000199A320D00001D0
:101760008DB11DD0000120EE89F0DECFCFF0DDCFAE
:10177000D0F00001CF1FD01FCF4BD02B4F50000116
:10178000CF2750500001D023890E0001CF5D130EEA
:10179000D059D8A0A5D0000100018D81A1D05766F5
:1017A0002FD000018DA12CD0000199B329D056A2D1
:1017B0000FD00001CF6F060E00010001806F000105
:1017C000CF510001CF6F040E566E0001CF5114D0DF
:1017D00056A412D00001CF6F070E00010001806FE8
:1017E0000001CF510001CF6F020E566E0001CF51A4
:1017F0004FC089F050C08AF0000100018D9170D077
:10180000000196A306D0060E00010001AF6F0B0E7B
:1018100021D0000193B325D0000100018B515EEC73
:1018200014F056A41AD00001CF6F2D0E0001000154
:10183000AA6F0001CF510001CF6F2D0E00010001F2
:10184000AB6F0001CF510001000E00010001AF6F2E
:101850000001AA0E00010001AE6F0001CF6F000E63
:101860003AD056A00CD00001CF6F2D0E0001000120
:10187000BB6F0001CF51000ED9EC19F029D056A250
:101880000CD00001CF6F2D0E00010001BB6F0001D5
:10189000CF51010ED9EC19F01BD056A40CD0000189
:1018A000CF6F2D0E00010001BB6F0001CF51020E62
:1018B000D9EC19F00DD056A60BD00001CF6F2D0E2C
:1018C00000010001BB6F0001CF51030ED9EC19F0EC
:1018D0000001CF6F010E00010001B96F0001CF516F
:1018E0001200FFFFFFFFB8D0000190A3C4D0000199
:1018F000DE6F000E4DD0010E9EEC18F059EC12F088
:101900000001D6C0E0F00001D7C0E1F00001000EF8
:1019100000010001AF6F0001E50E00010001AE6F94
:1019200000010001AFC0CCF000010001AEC0CBF05F
:10193000E0C0CDF0E1C0CEF0000E00010001D06F9C
:101940000A0E0001CF6F34EC16F00001DE6F000EBE
:1019500000010001B06F0001DE510001DE6F010ED9
:1019600000010001B16F0001DE510001DE6F000EC9
:1019700000010001B26F0001DE510001DE6F000EB8
:1019800000010001B36F0001DE510001DE6F020EA5
:10199000000100019A6F5DD0000190B36CD04FC080
:1019A0009CF050C09DF00001DE6F030E00010001AD
:1019B0009A6F0001DE51E3EC17F05DD0000190A3B7
:1019C00009D00001DE6F000E546E0001DE519CEC68
:1019D0001AF051D0000199A34ED0000120EE9CF0E6
:1019E000DECFDEF0DDCFDFF00001DE1FDF1FDE4BDC
:1019F000DF2B4F500001DE2750500001DF23A10EE6
:101A00000001DE5D0F0EDF59D8B035D0000120EEA9
:101A10009CF0DECFDEF0DDCFDFF00001DE1FDF1F48
:101A2000DE4BDF2B4F500001DE2750500001DF233B
:101A3000B90E0001DE5D0B0EDF59D8A01CD00001ED
:101A4000DE6F030E546E0001DE510001DE6F010EE9
:101A5000566E0001DE510FD0000100019A51000ABC
:101A6000D8B449D7010AD8B43FD7030AD8B494D719
:101A7000010AD8B4A3D71200FFFFFFFF0001CE6F09
:101A8000000E00010001D26F0001CE510101010ED4
:101A900000010001BC6F0101000E00010001BB6FDD
:101AA0000001CE6F000E00010001BD6F0001CE519C
:101AB0000001CF6F650E00010001BE6F0001CF5124
:101AC000C8EC18F0FDEC19F000010001D26F000124
:101AD0000001D205D8A480D001016AA14CD0000138
:101AE000CE6F200E00010001AA6F0001CE5100014F
:101AF000CE6F200E00010001AB6F0001CE5101013D
:101B0000010162390F0B0F0B3EEC1AF000010001CE
:101B1000AC6F0101010162510F0B3EEC1AF00001A4
:101B20000001AD6F0001000E00010001AF6F000168
:101B3000AA0E00010001AE6F4FC0D0F050C0D1F02E
:101B400002D084EC15F00001D0C0CEF00001D1C06D
:101B5000CFF00001CE1FCF1FCE4BCF2B4F50000137
:101B6000CE2750500001CF23E80E0001CE5D030EBA
:101B7000CF59D8A0E6D70101010163390F0B0F0B34
:101B80003EEC1AF000010001AA6F0101010163514E
:101B90000F0B3EEC1AF000010001AB6F01010101D7
:101BA00064390F0B0F0B3EEC1AF000010001AC6F13
:101BB0000101010164510F0B3EEC1AF0000100011C
:101BC000AD6F0001000E00010001AF6F0001AA0E11
:101BD00000010001AE6F0CD00001CE6F450E000178
:101BE0000001BB6F0001CE51030ED9EC19F0FFD7F5
:101BF0001200FFFFFFFF0001BCC0BEF00001BF6B81
:101C0000C06B00010001BB350001BE3701E3BF819D
:101C10000001BE5100010001C86F0001C86701D07A
:101C200066D0170E0001BE6F0001BAC0BFF0000100
:101C3000BBC0C0F00001BCC0C1F00001BE29000162
:101C4000C26F05D00001D890C133C033BF3300014B
:101C5000C22FF8D70001BF5100010001C36F00017E
:101C60000001BB8FFF0E00010001BA17FF0E00013B
:101C70000001BB17000E00010001BC1700010001AC
:101C8000BA5100010001C46F00010001BB51000105
:101C9000C56F0001BC510001C66F0001C76B8E0EFD
:101CA00000010001C85F00010001C8AF1BD00001A6
:101CB0000001C851800A0001BE6FF10E800A0001C8
:101CC000BE5DD8A014D00001D8900001C733000138
:101CD000C6330001C5330001C43300010001C83F11
:101CE000F2D724D0170E00010001C8651BD0000EEA
:101CF00000010001BA6F000E0001BB6F000E000171
:101D0000BC6F000E0001BD6F2ED00001D890000105
:101D1000C4370001C5370001C6370001C7370001CD
:101D20000001C80700010001C867EFD700010001EA
:101D3000C351D8B410D000010001C71F0001C61F55
:101D40000001C51F0001C46D000E0001C523000184
:101D5000C6230001C723C4C0BAF0C5C0BBF0C6C0CB
:101D6000BCF0C7C0BDF01200FFFFFFFFE9CF11F0CC
:101D7000EACF12F0E1CF13F0E2CF14F0D9CF15F093
:101D8000DACF16F0F3CF17F0F4CF18F0F6CF19F042
:101D9000F7CF1AF0F8CF1BF0F5CF1CF0F2BAF2A48F
:101DA00074D0F294F00ED76E8C0ED66E4F4A502A35
:101DB000512E04D0320E516E4D4A4E2A5650D8B490
:101DC0005CD000010001A251A111D8A410D056C0CE
:101DD000A4F0010E00010001A26FF40E0001A16F3A
:101DE0000A6E000E00010001A56F0A5005D0000127
:101DF0000001A107D8A0A2070001A5C001F0026A56
:101E0000000E046E020E036E2AEC15F0010E0A6E2F
:101E10000B6A012A03D0D8900A360B36012EFBD765
:101E200000010001A4510C6E0D6A0D50800A0E6E67
:101E30000A500C5C0B50800A0E58D8A026D0000126
:101E40000001A5B10BD000010001A551D8B404D008
:101E500000010001A32F19D0828805D000010001E4
:101E6000A32F13D082980A6E320E00010001A36FD7
:101E70000A5000010001A52B08D08298000E000135
:101E80000001A26F000E0001A16F1CC0F5FF1BC076
:101E9000F8FF1AC0F7FF19C0F6FF18C0F4FF17C00B
:101EA000F3FF16C0DAFF15C0D9FF14C0E2FF13C05C
:101EB000E1FF12C0EAFF11C0E9FF10C0FBFF0FC035
:101EC000FAFF1100FFFFFFFFE8CFC9F0000E00018D
:101ED0000001C86F010E0001C76F0001C36F000E43
:101EE00000010001CA6F0001C35116D0C7C0BAF08B
:101EF000C8C0BBF0000E00010001BD6F0A0E00015A
:101F0000BC6FB0EC17F00001BAC0C7F00001BBC055
:101F1000C8F000010001CA2B00010001C9510001F5
:101F2000C36FC46B00010001C7510001C35D000114
:101F30000001C8510001C459D8B0D8D70001000130
:101F4000C96708D00001C36F010E00010001CA6F0C
:101F50000001C35100010001CA51010DF3500001FD
:101F60000001C125D96EF45000010001C221DA6ED2
:101F7000000EDF6E47D0FF0E0001C36FFF0EC46F6F
:101F800000010001CA510001C56FC66B0001C351B9
:101F90000001C5270001C4510001C6230001C5513D
:101FA00000010001C125D96E0001C65100010001E8
:101FB000C221DA6E00010001C9C0BAF000010001BF
:101FC000BB6B000E00010001BD6F0A0E0001BC6F6B
:101FD000D0EC11F000010001BA51300FDF6E0001AA
:101FE000C36F0A0E00010001BA6F0001C351000166
:101FF0000001C951C3EC16F000010001C96F0001D6
:102000000001CA0700010001CA67B5D7000100013D
:10201000C2C0C2F000010001C1C0C1F01200FFFF48
:10202000FFFF00010001BD51D8B409D0000100013B
:10203000BA510001BB110001BC11D8A418D0000E88
:1020400000010001BA6F000E00010001BB6F000E1D
:1020500000010001BC6F81D000010001BD2B000117
:10206000D8900001BC330001BB330001BA33000E2D
:1020700000010001BA150001BF6F000E0001000150
:10208000BB150001C06FFE0E00010001BC15000170
:10209000C16F0001BF51C011C111D8B418D0DCD735
:1020A00000010001BD2B010E00010001BA27000E46
:1020B00000010001BB23000E00010001BC23000150
:1020C000D8900001BC330001BB330001BA33000ECD
:1020D00000010001BA150001BF6F000E00010001F0
:1020E000BB150001C06FFF0E00010001BC1500010F
:1020F000C16F0001BF51C011C111D8B40CD0D0D7ED
:1021000000010001BD070001D8900001BA370001AD
:10211000BB370001BC3700010001BBAFF1D70001A4
:102120000001BDB103D000010001BB9F0001D890A8
:10213000BD3300010001BD5100010001BC130001CD
:102140000001BE51D8B403D000010001BC8FBAC059
:10215000BAF0BBC0BBF0BCC0BCF01200FFFFFFFF79
:102160000001C06F000E00010001C16F0001C051ED
:102170000001C06F000E00010001C26F0001C051DC
:102180000001C06F000E00010001C36F0001C051CB
:1021900046D000010001C351030D0101000EF324DC
:1021A000D96E0101010EF420DA6EDF50D8A42FD0D1
:1021B00000010001C36701D061D000010001C267C6
:1021C0002BD0FF0E00010001C32500010001BA6FF2
:1021D00000010001BB6BFF0EBB23000E00010001DC
:1021E000BD6F030E0001BC6FB0EC17F00101000ED3
:1021F00000010001BA25D96E0101010E00010001A4
:10220000BB21DA6EDF5000010001C26F05D0000172
:102210000001C251D8A432D000010001C32B1F0E0F
:1022200000010001C365B5D700010001C251D8B457
:1022300008D001010101605100010001C219D8B4A8
:1022400015D000010001C26719D000010001C3517F
:10225000030D0101000EF324D96E0101010EF420DB
:10226000DA6E010101016051DF6208D00001C06F28
:10227000010E00010001C16F0001C051C1C0C0F0DA
:102280000001C0311200FFFFFFFFC4C0C8F0C5C08D
:10229000C9F0C8C0BAF0C9C0BBF0C6C0BCF0C7C066
:1022A000BDF0DDEC15F00001BAC0C8F00001BBC004
:1022B000C9F000010001C24BC32B00010001C9514C
:1022C000C811D8A4E6D70001C2C0F6FF0001C3C000
:1022D000F7FFF86A050EF76404D0000EF56E0C00E7
:1022E00006D0F6CFE1FFF7CFE2FF000EE76E000168
:1022F0000001C207D8A0C307C4C0BAF0C5C0BBF074
:10230000C6C0BCF0C7C0BDF07CEC16F000010001F7
:10231000BA5100010001CA6FC4C0BAF0C5C0BBF019
:10232000C6C0BCF0C7C0BDF0DDEC15F00001BAC0FE
:10233000C4F00001BBC0C5F0090E00010001CA6570
:1023400004D0070E00010001CA27300E0001000171
:10235000CA270001C2C0F6FF0001C3C0F7FFF86A38
:10236000050EF76405D00001CAC0F5FF0C0007D0C8
:10237000F6CFE1FFF7CFE2FF0001CAC0E7FF00019F
:102380000001C207D8A0C30700010001C551C41154
:10239000D8A4B2D700010001C24BC32B1200FFFF2B
:1023A000FFFF0001BE6F000E00010001C06F0001C1
:1023B000BE5100010001BB51800AF36E800EF35C38
:1023C000000ED8B4BA5DD8B00FD000010001BA6DCC
:1023D0000001BB1FD8B0BB2B0001BE6F010E000176
:1023E0000001C06F0001BE5100010001BD51800A13
:1023F000F36E800EF35C000ED8B4BC5DD8B007D08D
:1024000000010001BC6D0001BD1FD8B0BD2B000153
:102410000001BD51BC11D8B43AD00001BE6F010E0D
:1024200000010001BF6F0001BE5109D00001000191
:102430000001D890BC37BD3700010001BF2B00015F
:102440000001BDAFF3D700010001BC510001000144
:10245000BA5D00010001BD5100010001BB59D8A0C7
:102460000CD000010001BC5100010001BA5F000165
:102470000001BD5100010001BB5B00010001000132
:10248000D890BD33BC3300010001BF2FDCD7000161
:102490000001C051D8B407D000010001BA6D00019D
:1024A000BB1FD8B0BB2BBAC0BAF0BBC0BBF0120088
:1024B000FFFFFFFF000E00010001DD6F000E0001B5
:1024C000DC6F809A8182000E00010001BB6F0A0E52
:1024D0000001BA6FB4EC19F0000E7CEC17F00001AB
:1024E000C0C0DCF00001C1C0DDF0809A8192DCC088
:1024F000C2F0DDC0C3F08EEC19F0C2C0C7F0C3C09B
:10250000C8F0C4C0C9F0900E00010001CA6FA00E4F
:1025100000010001CB6F3B0E00010001CC6FDEEC2F
:1025200009F0C7C09EF0C8C09FF0C9C0A0F09EC00F
:10253000C7F09FC0C8F0A0C0C9F0EC0E00010001B8
:10254000CA6F390E00010001CB6F410E000100017E
:10255000CC6FDEEC09F0C7C09EF0C8C09FF0C9C0C8
:10256000A0F09EC0C7F09FC0C8F0A0C0C9F0000E88
:1025700000010001CA6FC80E00010001CB6F420EBE
:1025800000010001CC6FDEEC09F0C7C09EF0C8C0AE
:102590009FF0C9C0A0F09EC0BAF09FC0BBF0A0C021
:1025A000BCF0FAEC0DF0BAC0D8F0BBC0D9F0BCC09A
:1025B000DAF0BDC0DBF0D8C0D6F0D9C0D7F0120039
:1025C000FFFFFFFF000E00010001DD6F000E0001A4
:1025D000DC6F82AA02D08182808A010E7CEC17F027
:1025E0000001C0C0DCF00001C1C0DDF08192809A22
:1025F000DCC0C2F0DDC0C3F08EEC19F0C2C0C7F081
:10260000C3C0C8F0C4C0C9F0900E00010001CA6F79
:10261000A00E00010001CB6F3B0E00010001CC6F4A
:10262000DEEC09F0C7C035F0C8C036F0C9C037F0DD
:1026300035C0C7F036C0C8F037C0C9F0EC0E000195
:102640000001CA6F390E00010001CB6F410E00017D
:102650000001CC6FDEEC09F0C7C035F0C8C036F021
:10266000C9C037F035C0C7F036C0C8F037C0C9F0B0
:10267000000E00010001CA6FC80E00010001CB6FFF
:10268000420E00010001CC6FDEEC09F0C7C035F04E
:10269000C8C036F0C9C037F035C0BAF036C0BBF09C
:1026A00037C0BCF0FAEC0DF0BAC0D8F0BBC0D9F01E
:1026B000BCC0DAF0BDC0DBF0D8C0D6F0D9C0D7F0CE
:1026C0001200FFFFFFFFE8CFBAF02BD0000E27D09B
:1026D000B70E25D0D60E23D0960E21D0970E1FD040
:1026E000F20E1DD0D00E1BD0F10E19D0D20E17D085
:1026F000400E15D0100E13D0E70E11D0210E0FD0C2
:10270000D50E0DD0750E0BD0330E09D0760E07D036
:10271000F60E05D0250E03D0F70E01D0770E836E8E
:102720004ED000010001BA51200AD8B4CFD70D0A0B
:10273000D8B4E0D71D0AD8B4DFD7010AD8B4DED7A1
:10274000030AD8B4DDD7010AD8B4DCD7070AD8B455
:10275000DBD7010AD8B4DAD7030AD8B4D9D7010A2B
:10276000D8B4D8D70F0AD8B4D7D7010AD8B4D6D797
:10277000780AD8B4ADD7030AD8B4B2D7010AD8B40E
:10278000B1D7070AD8B4B0D7010AD8B4A3D7030A7F
:10279000D8B4A2D7160AD8B4A1D7030AD8B4B6D7EA
:1027A0000C0AD8B4A5D73D0AD8B49AD7010AD8B430
:1027B00099D7070AD8B498D7100AD8B497D7120077
:1027C000FFFFFFFF000E00010001DD6F000E0001A2
:1027D000DC6F8192809A000E7CEC17F00001C0C083
:1027E000DCF00001C1C0DDF0DCC0C2F0DDC0C3F030
:1027F0008EEC19F0C2C0C7F0C3C0C8F0C4C0C9F0A5
:10280000900E00010001CA6FA00E00010001CB6F05
:102810003B0E00010001CC6FDEEC09F0C7C032F0C6
:10282000C8C033F0C9C034F032C0C7F033C0C8F0FC
:1028300034C0C9F0EC0E00010001CA6F390E00016E
:102840000001CB6F410E00010001CC6FDEEC09F0FE
:10285000C7C032F0C8C033F0C9C034F032C0C7F0CE
:1028600033C0C8F034C0C9F0000E00010001CA6FC7
:10287000C80E00010001CB6F420E00010001CC6FB9
:10288000DEEC09F0C7C032F0C8C033F0C9C034F084
:1028900032C0BAF033C0BBF034C0BCF0FAEC0DF07B
:1028A000BAC0D8F0BBC0D9F0BCC0DAF0BDC0DBF014
:1028B000D8C0D6F0D9C0D7F01200FFFFFFFFE8CF95
:1028C000CCF00001000E00010001CE6F0001E50E0A
:1028D00000010001CD6F00010001CEC0C2F0000177
:1028E0000001CDC0C1F000010001CC5163EC0FF03C
:1028F0000001C1C0CDF00001C2C0CEF00001CB6F1D
:10290000200E00010001AA6F0001CB510001CB6F26
:10291000200E00010001AB6F0001CB510A0E000137
:102920000001CC5DD8B011D0CDC0D9FFCEC0DAFF48
:10293000DF5000010001AD6F0001CB6F300E0001D0
:102940000001AC6F0001CB5115D0000120EE01F069
:102950000001CD51D9260001CE51DA22DF5000010D
:102960000001AD6FCDC0D9FFCEC0DAFFDF5000014E
:102970000001AC6F0001000E00010001AF6F00010B
:10298000AA0E00010001AE6F1200FFFFFFFF56D03C
:10299000000193B35DD00001C16F010E556E0001BF
:1029A000C1519CEC1AF054D0000193A351D0000106
:1029B000C16F030E556E0001C1514AD0000193B39F
:1029C00012D00001C16F010E546E0001C15100010F
:1029D000C16F010E2E6E0001C151000E9EEC18F069
:1029E000E3EC17F016D0000190B313D00001C16FD3
:1029F000020E546E0001C1510001C16F010E0001B1
:102A000000019A6F0001C151010E9EEC18F0E3EC39
:102A100017F0000199B31CD0E3EC17F00001C16F6F
:102A2000530E00010001BB6F0001C151000ED9EC33
:102A300019F081A0FED79CEC1AF00AD05550000A7C
:102A4000D8B4A6D7010AD8B4AFD7020AD8B4B6D73B
:102A50001200FFFFFFFF056E000E076E05500450C9
:102A6000800AF36E800EF35C000ED8B4035CD8B01D
:102A700008D0036C041ED8B0042A056E010E076E40
:102A800005500250800AF36E800EF35C000ED8B43D
:102A9000015CD8B006D0016C021ED8B0022A010E2B
:102AA000071A000E096E000E086E04500310D8B409
:102AB0001ED0056E010E066E055004D0D890033668
:102AC0000436062A04AEFAD7D890083609360350E1
:102AD000015C04500258D8A005D00350015E045098
:102AE000025A0880D89004320332062EEDD70750E0
:102AF000D8B404D0086C091ED8B0092A08C001F067
:102B000009C002F01200FFFFFFFF00010001B967DA
:102B100052D000010001B52B0001B55100010001A8
:102B2000B65DD8A048D000010001B451010D0001EC
:102B300020EEAEF0DECFBDF0DDCFBEF0F3500001F1
:102B4000BD27F4500001BE23BDC0F6FFBEC0F7FF95
:102B5000F86A050EF76404D00800FFFFF55005D0B1
:102B6000F6CFE1FFF7CFE2FFE75000010001BB6FB6
:102B700000010001B451D9EC19F000010001B45179
:102B8000010D0001B00EF324D96E0001000EF420F7
:102B9000DA6EDF50D7EC1AF0000120EEB4F0DF2A35
:102BA000030EDF6408D00001BD6F000E00010001BC
:102BB000B46F0001BD511200FFFFFFFF000E0001C6
:102BC0000001C16F000E0001C06F00010001BD5186
:102BD000BC11D8B443D00001BE6F010E000100014A
:102BE000BF6F0001BE5109D0000100010001D89063
:102BF000BC37BD3700010001BF2B00010001BDAF94
:102C0000F3D7000100010001D890C037C13700019F
:102C10000001BC5100010001BA5D00010001BD517D
:102C200000010001BB59D8A00FD000010001BC5128
:102C300000010001BA5F00010001BD510001000167
:102C4000BB5B00010001C081000100010001D890C0
:102C5000BD33BC3300010001BF2FD3D7C0C0BAF0D1
:102C6000C1C0BBF01200FFFFFFFF00010001CCC09C
:102C7000D2F000010001CBC0D1F000010001CE5123
:102C8000800AF36E800EF35C000ED8B4CD5DD8B030
:102C90001FD00001CBC0F6FF0001CCC0F7FFF86ADF
:102CA000050EF76404D02D0EF56E0C0006D0F6CF9D
:102CB000E1FFF7CFE2FF2D0EE76E00010001CB4BE5
:102CC000CC2B00010001CD6D0001CE1FD8B0CE2B62
:102CD00000010001CCC0C3F000010001CBC0C2F074
:102CE000CDC0C4F0CEC0C5F0CFC0C6F0D0C0C7F0D4
:102CF00044EC11F01200FFFFFFFF00010001BD5185
:102D0000BC11D8B43AD00001BE6F010E0001000121
:102D1000BF6F0001BE5109D0000100010001D89031
:102D2000BC37BD3700010001BF2B00010001BDAF62
:102D3000F3D700010001BC5100010001BA5D0001A0
:102D40000001BD5100010001BB59D8A00CD0000109
:102D50000001BC5100010001BA5F00010001BD513A
:102D600000010001BB5B000100010001D890BD33F0
:102D7000BC3300010001BF2FDCD7BAC0BAF0BBC022
:102D8000BBF01200FFFFFFFFE8CFBCF00001BB6FFC
:102D9000000E00010001BE6F0001BB5100010001E7
:102DA000BA51D8B42ED00001BB6F010E0001000152
:102DB000BD6F0001BB5106D00001D890BA370001A9
:102DC0000001BD2B00010001BAAFF6D70001D89079
:102DD000BE3700010001BA5100010001BC5DD8A05E
:102DE00009D000010001BA5100010001BC5F0001DF
:102DF0000001BE810001D890BA3300010001BD2F4F
:102E0000E5D700010001BE511200FFFFFFFF0001E6
:102E1000E36F000E00010001E46F0001E35116ECC6
:102E200018F058EC1AF0000E9EEC18F074EC18F044
:102E30000009D8A406D070EC1AF046EC18F03DEC6E
:102E40000DF067EC19F0C4EC08F084EC15F00ED02E
:102E5000C6EC14F0F8D70BEC03F0F5D772EC0CF0DD
:102E6000F2D78FEC07F0A0EC0BF0EDD75450000A2E
:102E7000D8B4EED7010AD8B4EED7030AD8B4EED747
:102E8000010AD8B4EED7DFD7FFFF0001BA6F000EFA
:102E900000010001BB6F0001BA510001BA6F000EC2
:102EA00000010001BC6F0001BA5113D00001000104
:102EB000BC51030D0101000EF324D96E0101010E76
:102EC000F420DA6E200EDF6401D010D00001000182
:102ED000BC2B1F0E00010001BC65E8D70001BA6FD2
:102EE000010E00010001BB6F0001BA51BBC0BAF076
:102EF0000001BA311200FFFFFFFFE8CFC3F0000E60
:102F000000010001C56F000E0001C46FC3C0C2F014
:102F10000001C247C247C247C2500001C219C70BD5
:102F2000C219C26EC280000E00010001BB6F050E07
:102F30000001BA6FB4EC19F0C284C2B4FED7C45019
:102F400000010001C56F0001C46BC3500001000106
:102F5000C413C290C4C0C0F0C5C0C1F01200FFFFCE
:102F6000FFFF00010001BA5100010001BC03F3CFD3
:102F7000BEF0F4CFBFF000010001BA510001000122
:102F8000BD03F3CFF4FFF36AF35000010001BE2745
:102F9000F45000010001BF2300010001BB510001FA
:102FA0000001BC03F3CFF4FFF36AF350000100010A
:102FB000BE27F45000010001BF23BEC0BAF0BFC05D
:102FC000BBF01200FFFFFFFF060E00010001AF6F14
:102FD000060E00010001AE6F0001BA6F000E000185
:102FE0000001B06F0001BA510001BA6F000E00017C
:102FF0000001B16F0001BA510001BA6F000E00016B
:103000000001B26F0001BA510001BA6F000E000159
:103010000001B36F0001BA510001BA6F000E000148
:103020000001B96F0001BA511200FFFFFFFF070E48
:10303000C16E000E806E92809282929492869288E7
:10304000929A000E816E93809392939493969398A4
:10305000939A938C938E000E826E94909492949493
:1030600094969498948A949C948E000E836E959076
:103070009592959495969598959A959C959E000E07
:10308000846E9680968296941200FFFFFFFF4FC0D9
:1030900030F050C031F084B025D00001BD6F410E3A
:1030A00000010001BB6F0001BD51030ED9EC19F006
:1030B00084B018D020EE30F0DECFBDF0DDCFBEF012
:1030C0000001BD1FBE1FBD4BBE2B4F500001BD27D1
:1030D00050500001BE23E80E0001BD5D030EBE5935
:1030E000D8A0E6D71200FFFFFFFF0001BF6F000E60
:1030F00000010001C06F0001BF5184A284B019D04B
:10310000E3EC17F002D084EC15F084B284A0FBD776
:1031100057800001BF6F010E00010001C06F000168
:10312000BF510001BF6F030E556E0001BF519CECF3
:103130001AF000010001C0511200FFFFFFFFE8CFAD
:10314000C0F0E3EC17F017D0060E00010001AF6FDE
:103150000B0E00010001AE6F84EC15F082BA0BD0AB
:103160005404D8A408D00001BF6F010E2E6E0001D8
:10317000BF51E3EC17F082AA02D0010E01D0000E7D
:1031800000010001C019D8A41200FFFFDDD7FFFF26
:10319000FFFF0001BF6F000E00010001C06F0001C2
:1031A000BF5114D000010001BD51CAEC1AF0BBC0E0
:1031B000D9FFBCC0DAFFDF6E00010001BB4BBC2BA6
:1031C00000010001BD2B00010001C02B0001000126
:1031D000BE5100010001C05DD8B01200FFFFE2D770
:1031E000FFFFFFFF0001C06F000E00010001C16F73
:1031F0000001C05113D0BEC0BAF0BCC0D9FFBDC0E1
:10320000DAFFDF5086EC1AF000010001BC4BBD2B49
:1032100000010001BE2B00010001C12B00010001D3
:10322000BF5100010001C15DD8B01200FFFFE3D71C
:10323000FFFF01EE00F06B0EEE6AE806FDE100EE26
:1032400080F03A0EEE6AE806FDE100EE2EF0240E64
:10325000EE6AE806FDE1D00EF66E350EF76E000E52
:10326000F86E00EEE5F010EE05F00900F5CFEEFF88
:10327000E550E150FAE1000EF86E000106EF17F09C
:10328000FFFFE8CFBBF08094819481848196000198
:10329000BA6F200E00010001BC6F0001BA510FD0BF
:1032A000819800010001BC5100010001BB6302D004
:1032B000818A01D0819A818800010001BC07000148
:1032C0000001BC67EDD7818680841200FFFFFFFFFD
:1032D00084A004D000010001908303D0000100010C
:1032E000909384A204D000010001938303D00001D5
:1032F0000001939382AA04D000010001968303D0B9
:1033000000010001969381A004D00001000199837F
:1033100003D00001000199931200FFFFFFFF00019D
:103320000001C2C0BAF000010001C3C0BBF000013F
:103330000001BC6B0001C56F8E0E00010001BD6F66
:103340000001C5510001C66F000E00010001BE6FF3
:103350000001C65110EC10F0BAC0C2F0BBC0C3F0FF
:10336000BCC0C4F01200FFFFFFFF4FC0BEF050C052
:10337000BFF00001BEC0BCF00001BFC0BDF0000145
:10338000BC1FBD1FBC4BBD2B4F500001BC27505074
:103390000001BD2300010001BA510001BC5D000124
:1033A0000001BB510001BD59D8B01200FFFFE1D7A9
:1033B000FFFFFFFFE8CFBCF0E1EC1AF000010001D5
:1033C000BB5162EC13F008D0828215D0828413D0F6
:1033D000828611D082800FD000010001BC51000A0A
:1033E000D8B4F2D7010AD8B4F1D7030AD8B4F0D7C9
:1033F000010AD8B4EFD71200FFFFFFFF0001CC6F26
:10340000000E00010001CD6F0001CC51EFEC05F082
:10341000D8A010D0AFEC10F0D8A00CD044EC17F02E
:10342000D8A008D00001CC6F010E00010001CD6FC3
:103430000001CC5100010001CD511200FFFFFFFF40
:10344000E8CFC0F0808A818200010001C05140ECC9
:1034500019F0000E00010001BB6F280E0001BA6FC9
:10346000B4EC19F0000E40EC19F08192809A8CC0F7
:103470008BF000010001812B1200FFFFFFFFE8CF5E
:10348000BBF00A0E00010001BB5DD8B005D0000101
:103490000001BB51300F04D000010001BB51370FB8
:1034A00000010001BA6F00010001BA511200FFFFD4
:1034B000FFFF880ED56EF00ED76E8C0ED66E800E86
:1034C000C26EC40EC16EF184F28AD08EF28E4FC0ED
:1034D00052F050C053F000010001B6691200FFFF26
:1034E000FFFF84A284A010D0BDEC1AF00001D26FBF
:1034F000500E00010001BB6F0001D251030ED9EC48
:1035000019F0C0EC0AF0FDD71200FFFFFFFFE8CF73
:10351000BBF0BAC0A9FFBBC0A8FFA69EA69CA6840C
:10352000F29E550EA76EAA0EA76EA682A6B2FED771
:10353000F28EA6941200FFFFFFFFE1EC1AF0010EDD
:10354000D7EC1AF082840001BB6F010E000100016C
:10355000B96F0001BB511200FFFFFFFF200E0001F9
:103560000001815DD8B004D0000100018C6702D059
:10357000010E01D0000E1200FFFFFFFF8494CF0E5A
:10358000AF6E200EAC6E900EAB6E9F9A9D8AF28C41
:103590001200FFFFFFFFE8CFBAF0BAC0A9FFA69E56
:1035A000A69CA68000F000F0A8501200FFFFFFFFCD
:1035B000E8CFBAF000010001BA05D8B48386120042
:1035C000FFFFFFFF000E836EF00E82161200FFFF5A
:0835D000333435360000FFFF23
:020000040020DA
:08000000FFFFFFFFFFFFFFFF00
:020000040030CA
:0E000000FF260200FF0000FF0FC00FE00F40C0
:00000001FF
